:020000040800F2
:10000000002000209D250008ED050008EF050008F0
:1000100000000000000000000000000000000000E0
:10002000000000000000000000000000F1050008D2
:100030000000000000000000F3050008F5050008BE
:10004000ED250008ED250008ED250008ED25000848
:10005000ED250008ED250008ED250008ED25000838
:1000600000000000ED250008ED250008ED25000842
:10007000ED250008ED25000800000000ED25000832
:100080000000000000000000000000000000000070
:10009000ED25000800000000ED250008FD05000822
:1000A00000000000ED250008000000000000000036
:1000B000ED250008ED25000800000000000000000C
:1000C000002243088B4274D303098B425FD3030A97
:1000D0008B4244D3030B8B4228D3030C8B420DD3AA
:1000E000FF22090212BA030C8B4202D31212090238
:1000F00065D0030B8B4219D300E0090AC30B8B4276
:1001000001D3CB03C01A5241830B8B4201D38B0323
:10011000C01A5241430B8B4201D34B03C01A5241C8
:10012000030B8B4201D30B03C01A5241C30A8B420B
:1001300001D3CB02C01A5241830A8B4201D38B02F6
:10014000C01A5241430A8B4201D34B02C01A52419A
:10015000030A8B4201D30B02C01A5241CDD2C3090C
:100160008B4201D3CB01C01A524183098B4201D388
:100170008B01C01A524143098B4201D34B01C01A73
:10018000524103098B4201D30B01C01A5241C308EB
:100190008B4201D3CB00C01A524183088B4201D35A
:1001A0008B00C01A524143088B4201D34B00C01A46
:1001B0005241411A00D20146524110467047FFE7B2
:1001C00001B5002000F006F802BDC0460029F7D0B6
:1001D00076E770477047C046002B11D1002A0FD137
:1001E000002900D1002802D00021C943080007B42B
:1001F000024802A14018029003BDC046D9FFFFFF8C
:1002000003B4684601B5029802F04CFA019B9E4681
:1002100002B00CBC7047C04610B5002903D100F0F5
:1002200007F8203002E0080000F002F810BDC046D8
:100230001C2101231B04984201D3000C10391B0A16
:10024000984201D3000A08391B09984201D30009DA
:10025000043902A2105C40187047C0460403020231
:1002600001010101000000000000000010B5064C73
:100270002378002B07D1054B002B02D0044800E067
:1002800000BF0123237010BD0C00002000000000FF
:100290003C280008044B10B5002B03D00349044848
:1002A00000E000BF10BDC0460000000010000020AC
:1002B0003C28000830B589B01422002103A802F0C0
:1002C00096F9114BDA6A01242243DA62DA6A224093
:1002D0000192019AD96A02221143D962DB6A1A405B
:1002E0000292029B094D00220121280000F044FBEC
:1002F0000394049400230593069303A9280000F0B7
:100300007DFA09B030BDC046001002400004005024
:1003100072B6FEE710B51348134B0360E123DB0010
:100320004360502383604F3BC360002303614361FC
:100330008361C361036200F0A3FC00280CD109486B
:10034000002101F0DDF8002808D10648002101F065
:1003500003F9002804D110BDFFF7DAFFFFF7D8FF3B
:10036000FFF7D6FFB00000200054004010B50B4846
:100370000B4B03609623DB01436000238360C36063
:1003800003610C22426183610362436202F0D0F890
:10039000002800D110BDFFF7BBFFC0462800002099
:1003A0000048004000B599B0342200210BA802F0AB
:1003B0001EF91422002106A802F019F918220021C2
:1003C000684602F014F91B490A681B4B1A40802347
:1003D0001B0113430B6010230B930F3B119300235E
:1003E0001293A0221202139214930BA801F036F973
:1003F000002818D10F23069300230793089309932D
:100400000A93002106A801F0B7FB00280DD10C23A8
:100410000093002303930493684601F0BFFC002877
:1004200005D119B000BDFFF773FFFFF771FFFFF7AC
:100430006FFFC04600700040FFE7FFFF10B584B0BB
:1004400000F018F9FFF7AEFFFFF734FFFFF762FF88
:10045000FFF78CFF03AA0223138026486233009320
:10046000623B502100F072FC052000F029F934E0D5
:1004700000236A46137354731E4864230093623B3F
:1004800003AA502100F062FC322000F019F9013477
:10049000E4B263B2002BEBDA174918486423102248
:1004A00001F065FF00220121154800F065FA7F2464
:1004B00010E000236A46137354730E4864230093BC
:1004C000623B03AA502100F041FC322000F0F8F812
:1004D000013CE4B263B2002BEBDA0A49074864231B
:1004E0000E2201F044FF01220121054800F044FAE8
:1004F0000024CEE7B0000020642800082800002077
:100500000004005054280008054B5A6B01210A438F
:100510005A63996B802252050A439A637047C0461A
:100520000010024010B586B004001422002101A87A
:1005300002F05DF82268144B9A4201D006B010BD5B
:10054000124CE26A01231A43E262E26A1A40009204
:10055000009AC022D2000192122202920F3A049213
:100560000593A02001A9C00500F048F9A26B8023E3
:100570009B031343A36300220021172000F0FEF821
:10058000172000F0FFF8D9E70054004000100240A7
:1005900010B586B004001422002101A802F027F84B
:1005A0002268104B9A4201D006B010BD0E4B996BD9
:1005B0008022D2020A439A63D96A01221143D96286
:1005C000DB6A1A400092009B0C2301930A3B0293C2
:1005D0000133049303330593A02001A9C00500F063
:1005E0000DF9E1E70048004000100240FEE7FEE799
:1005F0007047704710B500F051F810BD10B5074BAB
:100600001B689A69E023DB001A4203D0034800F01C
:1006100039FF10BD014800F053FCFAE7B00000209C
:100620007047000010B504000F4B1978FA208000C5
:10063000FFF746FD01000D4B1868FFF741FD00F084
:10064000ADF800280DD1032C01D901200AE00130BA
:1006500000222100404200F091F8054B1C60002070
:1006600000E0012010BDC046040000200000002072
:100670000800002010B5084A136840210B4313609E
:100680000320FFF7CFFF041E02D00124200010BD7D
:10069000FFF73AFFFAE7C04600200240034A11681C
:1006A000034B1B785B1813607047C04604010020A1
:1006B00004000020014B18687047C0460401002068
:1006C00070B50400FFF7F6FF0500631C02D0044B71
:1006D0001B78E418FFF7EEFF401BA042FAD370BD71
:1006E0000400002070B5002811DB8308134DC033CF
:1006F0009B005C5903221040C000FC32160086406B
:10070000B44389010A40824022435A5170BD0F23ED
:100710000340083B9B0806339B00094A9446634408
:100720005C6803221040C000FC3215008540AC43D9
:1007300089010A40824022435A60E7E700E100E075
:1007400000ED00E0013880235B0498420FD2094A93
:1007500050600948036A1B021B0AC02109060B43AB
:100760000362002393600733136000207047012069
:10077000FCE7C04610E000E000ED00E010B5FFF738
:10078000B1FF10BD002805DB1F220240012393406A
:10079000014A13607047C04600E100E010B5FFF762
:1007A000D1FF10BD10B52523C35C022B03D0042359
:1007B000C363012010BD026813680E218B431360D0
:1007C00001680A6801239A430A60416C1C220A40AE
:1007D000016C1C0094404C6025228354233300227A
:1007E000C254836B002B02D098470020E2E7002020
:1007F000E0E72523C05CC0B270470000F0B50023DD
:1008000056E086685F000324BC40A643CC68BC4029
:1008100034438460446894434E6836090122324070
:100820009A402243426053E0DE080836B60037584B
:1008300005321A4092000F249440A7430C6994405B
:1008400022003A43325056E0052600E00026A6403A
:1008500034003C4302329200414E9451414A976821
:10086000EA433E00AE434C68E40201D53E002E430D
:100870003C4CA660E7683E0016404C68A40201D5D7
:100880003E002E43374CE66067683E0016404C68D9
:10089000A40301D53E002E43324C666026683240E8
:1008A0004C68E40301D52A0032432E4C2260013308
:1008B0000C682200DA4052D001229A4025001540EF
:1008C0001442F4D04E6803243440013C012C98D9E2
:1008D0004C6803222240032A08D0C4685E00032229
:1008E000B24094438A68B2402243C2604C680322FB
:1008F0002240022A98D004685E0003221700B74005
:10090000BC434F683A40B240224302604C68C02268
:1009100092021442CBD0144C626B012632436263C4
:100920009A08941CA4000E4EA75903241C40A4004E
:100930000F26A640B743A026F605B04286D00B4E40
:10094000B04208D00A4EB04207D00A4EB04200D1A1
:100950007AE706267BE7012679E7022677E7F0BDEE
:10096000000001400004014000100240000400505B
:1009700000080050001C0050002A01D0816170471F
:100980008162FCE7026893699B0701D500239362AB
:1009900003689A69D20703D49A6901210A439A61CC
:1009A0007047000010B58905890D120411431943E1
:1009B000029B194349004908046862685B0D802066
:1009C000C0000340034803439A4313000B43636092
:1009D00010BDC046FF63FF0330B5CB0709D54123E7
:1009E000C35C28221340282B01D0F22302E01A33E3
:1009F00000E000238A0709D544241C434122825C7D
:100A000028252A40282A0FD0F42213430AB2002AAC
:100A10000CDB10290DD020290ED040290FD0016801
:100A20000A689A430A6030BD2300EFE7B8221343F7
:100A3000EFE790221343EEE720221343EDE7402235
:100A40001343ECE7F0B5C64600B504000D001700EF
:100A500001688B69102216001E401A4200D175E011
:100A60001023CB61002398460026206883699B06EB
:100A700031D4002E2FD16B1CF7D0FFF71BFEC01B0B
:100A8000A84201D8002DF0D121684B688022D20104
:100A900013404222A25CD2B28869000403D5002B25
:100AA00001D1202A0ED123689B699B06DDD4FFF774
:100AB00001FEC01B1928F6D9202342461A4390464E
:100AC0000126D2E74A688023DB0113434B60FFF71E
:100AD000F1FD0700E7E7002E01D12023C3610426C2
:100AE000434633431E00012522689369D90504D586
:100AF00001210E43FF31D16101255A0506D5082297
:100B0000164322688021C900D16101259B051FD5AC
:100B100002231E43236880229200DA61012520000F
:100B2000FFF730FF226853680B490B405360636C3A
:100B30003343636441232022E25400232232A3542E
:100B4000023AA354280080BCB846F0BD0025CBE78C
:100B5000002DF7D0E3E7C04600E800FE70B50400C2
:100B60000D00160023689B699B0720D432002900E2
:100B70002000FFF767FF00281BD16B1CF2D0FFF7A6
:100B800099FD801BA84201D8002DEBD123689B69F9
:100B90009B07E7D4636C2022134363644123E25430
:100BA00000232232A354023AA354012000E0002083
:100BB00070BD0120FCE7F0B5CE4600B582B007005D
:100BC0000D00160099463B689C692C40641B6342EB
:100BD0005C410196B44221D14B460133F3D0FFF77B
:100BE00069FD089BC01A484502D84B46002BEAD144
:100BF0003B689B692B405B1B5A425341019A9342CD
:100C0000E1D17B6C202213437B644123FA540023FF
:100C10002232BB54023ABB54012000E0002002B053
:100C200080BCB946F0BD70B504000D00160003E0AD
:100C300023689B699B0612D523689B699B061BD47E
:100C4000320029002000FFF7FDFE002816D1FFF733
:100C500031FD801BA842EBD8002DEDD1E8E7636C95
:100C60002022134363644123E25400232232A3541D
:100C7000023AA354012000E0002070BD0120FCE7EF
:100C800010B5041E59D04123C35C002B43D041232F
:100C90002422E2542268136801218B4313606368A5
:100CA000226827490B4013612268936825490B404D
:100CB0009360E368012B34D0A168226884231B026F
:100CC0000B439360E368022B32D0226851681E4BBD
:100CD0000B4353602268D3681A490B40D3602369E1
:100CE00062691343A269120221681343CB60E3696E
:100CF000216A22680B4313602268136801210B43A9
:100D000013600023636441221F31A1542363013225
:100D1000A354002010BD40330022C254FFF702FC50
:100D2000B5E7A168226880231B020B439360C9E7E3
:100D30002368802212015A60C7E70120EAE7C04613
:100D4000FFFFFFF0FF7FFFFF00800002F0B585B0DE
:100D500004000F00029203930A9D4123C35C202BE1
:100D600000D09BE02033C35C012B00D199E04023ED
:100D70000122C254FFF79EFC060080210090192337
:100D8000012209022000FFF716FF002800D08AE0A8
:100D900041232122E2540133113AE25400236364D7
:100DA000029A6262039A62856363638D9BB2FF2B32
:100DB0000BD9FF2323857F3B3F4A00925B04FF2230
:100DC00039002000FFF7EEFD18E0628D92B2228517
:100DD0008023D2B2384900919B0439002000FFF7EC
:100DE000E1FD0BE0628D92B222858023D2B2002118
:100DF00000919B0439002000FFF7D4FD638D9BB266
:100E0000002B34D0320029002000FFF7A7FE002875
:100E10004BD1626A236812789A62636A0133636213
:100E2000638D013B9BB26385238D013B9BB2238580
:100E3000628D92B2002AE1D0002BDFD100962B0008
:100E4000002280212000FFF7B6FE00282FD1638DFD
:100E50009BB2FF2BC6D9FF2323857F3B0022009244
:100E60005B04FF3239002000FFF79CFDC6E732002B
:100E700029002000FFF7D7FE00281AD1236820227E
:100E8000DA6121684B680D4D2B404B604123E254E1
:100E900000232232A354023AA35400E0022005B0FA
:100EA000F0BD0220FBE70120F9E70120F7E7012070
:100EB000F5E70120F3E7C0460020008000E800FECF
:100EC00010B5036899691A68436B002B00D09847E6
:100ED00010BD70477047000010B5040003681A6821
:100EE00042210020605451040CD51A6819490A4067
:100EF0001A604123E35C292B0BD04123E35C2A2BAE
:100F000017D010BD1204F4D51A6813490A401A60AC
:100F1000EFE718332822E254203B2363012120000D
:100F2000FFF75AFD40230022E2542000FFF7D1FFD3
:100F3000E7E717332822E2541F3B236302212000F6
:100F4000FFF74AFD40230022E2542000FFF7C2FFD2
:100F5000D7E7C046FFBFFFFFFF7FFFFF7047F8B531
:100F600004004123C35C28221340282B06D00368C9
:100F70000822DA6140230022C254F8BD0068856966
:100F80002D0C273B1D408669360CFE210E408368E0
:100F90009B059B0DC7680F40E268022A24D1DA093D
:100FA0007240F839114211D1A26C0132A264A26CD4
:100FB000022AE2D10022A2640231C16138316254B6
:100FC0001A0029002000FFF7C9FFD6E78021090297
:100FD0002000FFF701FD40230022E2543A002900DF
:100FE0002000FFF7BBFFC8E7802109022000FFF7C0
:100FF000F3FC40230022E254320029002000FFF7D6
:10100000ADFFBAE77047000010B50400164BC3628D
:101010000023036341222020A0540132A3546363C0
:10102000490713D523685A6A636A1A70636A0133E1
:101030006362238D002B09D0013B2385638D013B27
:101040009BB26385636C04221343636407492000E9
:10105000FFF7C2FC23681022DA6140230022E25429
:101060002000FFF7CFFF10BD0000FFFF038000004E
:101070007047704710B54123C35C602B06D0002336
:10108000036340228354FFF7F3FF10BD1F3B202270
:10109000C2540023036320328354FFF7EAFFF4E7CE
:1010A00010B504004123C35C00224220225443486F
:1010B000E0626285626C0A436264283BDBB2022B09
:1010C0001BD803212000FFF787FC41232822E2548C
:1010D0003B4B6363236BA26B002A03D0112B2DD0F3
:1010E000212B2BD0E26B002A03D0122B46D0222BCF
:1010F00044D02000FFF7BEFF10BD32492000FFF7AB
:101100006BFC2000FFF73EFC4123E35C602B12D018
:1011100020234122A354226891690B420BD093698A
:10112000DB0605D51023D361636C0422134363648B
:1011300023682022DA6100236363CBE72268136807
:101140005B0403D5136820490B401360A06BFFF7C5
:1011500050FB01280ED0A36B1C4A9A634023002247
:10116000E254A06BFFF71EFB0028C5D0A06B836B79
:101170009847C1E72000FFF77DFFBDE723681A68A5
:10118000120403D51A6812490A401A60E06BFFF78F
:1011900030FB01280ED0E36B0C4A9A6340230022F7
:1011A000E254E06BFFF7FEFA0028A5D0E06B836BFA
:1011B0009847A1E72000FFF75DFF9DE70000FFFFD4
:1011C0003D13000803800000FFBFFFFFE314000889
:1011D000FF7FFFFF70B504000D0002681668412311
:1011E000C35CD9B22020D061212B0CD029290AD090
:1011F000222901D02A290CD14A492000FFF7ECFB13
:101200002223236305E048492000FFF7E5FB212363
:1012100023632268516880231B020B4353602268BA
:10122000536842490B4053602000FFF7ABFB730447
:1012300041D5226813683E490B401360A36B002B15
:1012400003D01B685B689BB263856B0711D50423D1
:101250009D4323685A6A636A1A70636A0133636242
:10126000238D002B05D0013B2385638D013B9BB271
:101270006385638D9BB2002B03D0636C0422134300
:10128000636400234222A3546363636C002B21D167
:10129000E26A284B9A422AD14123E35C222B36D0C2
:1012A00041232022E254002323632032A354200050
:1012B000FFF70FFE2AE03604C7D5226813681E49DF
:1012C0000B401360E36B002BBFD01B685B689BB2C5
:1012D0006385BAE7616C2000FFF7E2FE4123E35C1F
:1012E000282B13D129002000FFF78EFE0EE02000EE
:1012F000FFF7F2FD0F4BE36241232022E25400236B
:1013000023632032A3542000FFF77CFE70BD1F33FF
:101310002022E254002323632032A3542000FFF74D
:10132000D9FDF3E7028000000180000000E800FE24
:10133000FFBFFFFF0000FFFFFF7FFFFFF8B50400C6
:101340000D001600C76A4023C35C012B00D195E055
:1013500040230122C2548B0601D5B30617D4EB06F5
:1013600040D5F3063ED5638D9BB2002B28D1413387
:10137000E35C282B0ED04123E35C292B13D0236898
:101380001022DA6140230022E2540020F8BDFFF76A
:1013900021FFE4E780239B049F42ECD12900200039
:1013A000FFF732FEEEE7364B9F42E8D0236810226B
:1013B000DA612000FFF7E6FA2000FFF78DFDE1E794
:1013C00023681022DA61636C0C3A13436364002FC4
:1013D00003D080235B049F42D4D1616C2000FFF7CF
:1013E0005FFECFE76B071ED573071CD5638D9BB2DD
:1013F000002B0DD023685A6A636A1A70636A01333E
:101400006362238D013B2385638D013B9BB2638522
:10141000638D9BB2002BB5D1194B9F42B2D02000F7
:10142000FFF75AFDAEE72B0701D5330716D4AD07FA
:10143000A8D5B607A6D5638D9BB2002B13D0626AE0
:10144000236812789A62636A01336362638D013B99
:101450009BB26385238D013B238593E72900200000
:10146000FFF77DFD8EE780235B049F4202D0002FB3
:1014700000D087E72000FFF72FFD83E7022085E7F4
:101480000000FFFF70B5026893691168DC0508D59C
:101490000C0606D5446C01252C434464802464006A
:1014A000D4615A0509D50A0607D5426C082422439F
:1014B000426402688024E400D4619B0509D50906D2
:1014C00007D5436C0222134343640368FF32FF32A3
:1014D000DA61416C0B230B4200D170BDFFF7E0FDD8
:1014E000FBE710B5806A836B002B01D000229A6362
:1014F000C36B002B01D000229A63FFF7BBFD10BD28
:10150000F0B54123C35C202B20D12033C35C012BD9
:101510001ED040240122025541252423435506684C
:10152000336893433360066833680A4F3B40336047
:10153000066833680B43336001680B6813430B6024
:1015400020234355002303550020F0BD0220FCE773
:101550000220FAE7FFEFFFFFF0B54123C35C202B29
:101560001ED12033C35C012B1CD040240122025524
:101570004125242343550668336893433360066846
:101580003368094F3B4009021943316001680B6819
:1015900013430B6020234355002303550020F0BD67
:1015A0000220FCE70220FAE7FFF0FFFF10B5264B10
:1015B000DA680C231340082B42D00C2B11D0042BDB
:1015C00009D0214B5A68520B072313400133802066
:1015D0000002984010BD1C4B1B68DB0632D51B482F
:1015E000F8E7910C0F230B401949C85C920D0323B7
:1015F0001A40541C144BDB68DB0309D5154A002341
:10160000002101F021F822000023FEF7E5FDE1E7CB
:101610000D4B1B68DB0609D50C4A0023002101F0A5
:1016200013F822000023FEF7D7FDD3E70A4A002370
:10163000002101F009F822000023FEF7CDFDC9E7E3
:101640000448C7E70448C5E70010024000093D0010
:101650007428000800127A000024F400F0B583B06A
:10166000041E00D165E2C54BDA680C251540DE6822
:1016700080235B021E400368DB0736D5082D2CD083
:101680000C2D28D0636880225202934255D0A022AC
:10169000D202934258D0B94B1A68B9490A401A602D
:1016A0001A68802149020A400192019A1A68B549D4
:1016B0000A401A606368002B52D0FEF7FBFF070058
:1016C000AE4B1B689B0310D4FEF7F4FFC01B6428CD
:1016D000F6D903202EE2002ED4D0A84B1B689B0322
:1016E00003D56368002B00D126E223689B076DD5E4
:1016F000E3689A0605D5A148026820210A430260E2
:101700008B43042D3CD00C2D38D0002B00D1B0E001
:101710009A490A680920824313430B60FEF7CAFF07
:101720000600964B1B685B0700D599E0FEF7C2FFE9
:10173000801B0228F5D90320FCE1904A1168802320
:101740005B020B431360B5E78C4B19688022D20211
:101750000A431A601968802252020A431A60A9E7F4
:10176000FEF7A8FF0700854B1B689B03BDD5FEF75E
:10177000A1FFC01B6428F6D90320DBE1002EC4D1F1
:101780007E4A1268520702D5002B00D1D6E17B4E6B
:1017900072687D490A40216909020A437260326811
:1017A00009218A4313433360FFF700FFF2681209EF
:1017B0000F231340754AD35CD840754B1860754BA6
:1017C0001868FEF72FFF002800D0B3E12368DB067E
:1017D0002DD5002D60D1694B1B689B0503D5A369EE
:1017E000002B00D1ACE1654A53686B490B40216A7C
:1017F0000B43536053681B021B0AE16909060B4344
:101800005360216A490B013180231B028B40D16850
:1018100009090F220A405D498A5CD3405C4A136083
:101820005C4B1868FEF7FEFE002800D082E12368BA
:101830001B077DD56369002B67D0504A136D0121CA
:101840000B431365FEF736FF06004C4B1B6D9B07E1
:101850006ED4FEF72FFF801B0228F6D9032069E122
:1018600046494B68484A13402269120213434B60B1
:10187000ACE7424A136801218B431360FEF71AFF5D
:1018800006003E4B1B685B07A0D5FEF713FF801BCD
:101890000228F6D903204DE1A369002B22D0374A54
:1018A000116880235B000B431360FEF703FF060003
:1018B000324B1B689B0506D4FEF7FCFE801B0228FA
:1018C000F6D9032036E12D4A536833490B40216A8B
:1018D0000B43536053681B021B0AE16909060B4363
:1018E0005360A4E7254A13682C490B401360FEF7A8
:1018F000E1FE0600214B1B689B0598D5FEF7DAFE3A
:10190000801B0228F6D9032014E11C4A136D012123
:101910008B431365FEF7CEFE0600184B1B6D9B072D
:1019200006D5FEF7C7FE801B0228F6D9032001E189
:1019300023685B0700D48EE0104B9B6BDB001BD44D
:101940000E4A916B80235B050B4393630126144B76
:101950001B68DB0528D5A36880225200934237D04C
:10196000002B4DD1054B1A6D0C490A401A651A6DB2
:101970000C490A401A6531E00026E8E700100240F1
:10198000FFFFFEFFFFFFFBFFFFE0FFFF88280008CF
:101990000000002008000020FF1FFFFFFFFEFFFFE8
:1019A00000700040FFFBFFFF6B4A116880235B0063
:1019B0000B431360FEF77EFE0700674B1B68DB05D9
:1019C000C9D4FEF777FEC01B6428F6D90320B1E026
:1019D000624A116D80235B000B431365A368002BE3
:1019E00028D0FEF767FE07005C4B1B6D9B0530D4CB
:1019F000FEF760FEC01B5A4B9842F5D9032099E0D0
:101A0000A022D200934209D0544B1A6D55490A4086
:101A10001A651A6D54490A401A65DFE74F4B196D74
:101A2000013AFF3A0A431A65196D802252000A43AF
:101A30001A65D3E7FEF73EFE0700484B1B6D9B057A
:101A400007D5FEF737FEC01B454B9842F5D903205A
:101A500070E0012E1AD0636A002B00D172E00C2DC9
:101A60004FD0022B18D03D4A136840490B401360F9
:101A7000FEF720FE0400394B1B689B013FD5FEF7A3
:101A800019FE001B0228F6D9032053E0334A936B5A
:101A900037490B409363DEE7304A136833490B4004
:101AA0001360FEF707FE05002C4B1B689B0106D553
:101AB000FEF700FE401B0228F6D903203AE0274932
:101AC000CB682C4A1340A26AE06A0243206B0243AF
:101AD0001343CB600A6880235B0413430B60FEF75B
:101AE000E9FD04001D4B1B689B0106D4FEF7E2FDD7
:101AF000001B0228F6D903201CE000201AE0002079
:101B000018E0012B20D0154BDA6880235B021340CC
:101B1000A16A8B421AD1F0239B031340E16A8B42E6
:101B200016D1C0231B041A40236B9A4212D1002005
:101B300000E0012003B0F0BD0120FBE70120F9E740
:101B40000120F7E70020F5E70120F3E70120F1E7A6
:101B50000120EFE70120EDE7007000400010024097
:101B600088130000FFFEFFFFFFFBFFFFFFFFFFFEEC
:101B7000FFFFFFEFFFFF02FF70B505000C0000281C
:101B800000D1D1E06A4B1A68012313408B4219D36C
:101B90002B689B0706D5674AD368F0218B43A96859
:101BA0000B43D3602B68DB077BD56B68022B20D0FF
:101BB000032B40D0012B44D05E4A126892051DD4FD
:101BC000012099E05A4A136801218B432343136093
:101BD000FEF770FD0600564B1A6801231340A3421E
:101BE000D6D0FEF767FD801B534A9042F3D90320FD
:101BF00082E0504A1268920300D497E04D49CA68C7
:101C0000032082431343CB60FEF754FD06006B684C
:101C1000022B1CD0032B28D0012B34D0454BDB6882
:101C20000C221A423DD0FEF745FD801B424B9842E4
:101C3000F4D9032060E03F4A12689201DED401200B
:101C40005AE03C4A12685207D8D4012054E0394B7C
:101C5000DA680C231340082B23D0FEF72BFD801BE2
:101C6000354A9042F3D9032046E0324BDA680C2320
:101C700013400C2B15D0FEF71DFD801B2E4B9842F8
:101C8000F3D9032038E02B4BDA680C231340042BE4
:101C900007D0FEF70FFD801B274B9842F3D9032096
:101CA0002AE0234B1A6801231340A34225D82B684E
:101CB0005B0706D51F4AD36820490B40E9680B43F0
:101CC000D3602B681B0707D51A49CB681C4A134001
:101CD0002A69D2001343CB60FFF768FC154BDA6822
:101CE00012090F231340174AD35CD840164B1860D3
:101CF000164B1868FEF796FC70BD0D4A136801215B
:101D00008B4323431360FEF7D5FC0600084B1A688B
:101D100001231340A342CAD0FEF7CCFC801B064B24
:101D20009842F3D90320E7E70120E5E70120E3E744
:101D3000002002400010024088130000FFF8FFFF5F
:101D4000FFC7FFFF882800080000002008000020CF
:101D5000014B18687047C0460000002010B5FFF71F
:101D6000F7FF044BDA68120A07231340024AD35CD8
:101D7000D84010BD001002408028000810B5FFF7C1
:101D8000E7FF044BDA68D20A07231340024AD35C08
:101D9000D84010BD001002408028000870B5040033
:101DA00003689B064ED55B4B9B6BDB0074D4594A92
:101DB000916B80235B050B4393630126564B1B6895
:101DC000DB056BD5534B1B6862685340C021890308
:101DD0000B4205D0C0239B0211001940994271D0DB
:101DE0004C4B196DC0239B0208001840194215D0B6
:101DF0001A40824212D023689B060FD5454B1A6DBC
:101E0000464911401D6D8020000328431865186D58
:101E1000434D284018651965D20559D423689B069F
:101E20000ED56368C02292021900114091425ED023
:101E300038490B6D6268C0208002024013430B6575
:101E4000012E5ED023689B0706D5324AD36C0C2145
:101E50008B43A1680B43D36423685B0706D52D4AE7
:101E6000D36C30490B40E1680B43D36423681B07F4
:101E700006D5284AD36C2C490B4021690B43D36407
:101E800023681B0643D5234AD36C28490B4061695C
:101E90000B43D36400203BE000268FE71E4A116805
:101EA00080235B000B431360FEF704FC05001A4B14
:101EB0001B68DB0586D4FEF7FDFB401B6428F6D9C2
:101EC000032025E0134B1B689B0389D501201FE0ED
:101ED000FEF7F0FB05000F4B1B6D9B059ED4FEF734
:101EE000E9FB401B124B9842F5D9032010E0094949
:101EF0000A6810480240C0208003034013430B606F
:101F000096E7044A936B0C490B4093639AE70020D1
:101F100070BDC0460010024000700040FFFFFCFF93
:101F2000FFFFF7FFFFF3FFFFFFCFFFFFFFFFF3FF11
:101F300088130000FFFFCFFFFFFFFFEF10B5EFF3A7
:101F4000108C012282F3108801680B68124C234028
:101F50000B608CF31088EFF3108C82F3108801680B
:101F60008B6893438B608CF31088036E012B06D033
:101F700080232022C25000230366836610BDEFF346
:101F8000108183F31088026813683234FF34A3434E
:101F9000136081F31088EBE7DFFEFFFFD0B504008C
:101FA000016883680269134342691343C26913439A
:101FB0000A688448024013430B60226853688249D0
:101FC0000B40E1680B435360A16922687F4B9A4242
:101FD00001D0236A194393687D4803400B43936003
:101FE00022687C4B9A4212D0784B9A4220D0102320
:101FF00076498A4242D0E06980221202904279D02A
:10200000082B00D9D8E09B00734AD3589F46734BE6
:10201000D96C0C230B40082B22D005D8002B21D0E3
:10202000042BE5D01023E3E70C2B1DD1043BDFE7A5
:102030006A4BDB6CC02109010B40802109018B42F6
:1020400014D007D8002B13D08021C9008B4211D1A6
:102050000423CDE7C02109018B420DD10823C7E736
:102060000223C5E70023C3E71023C1E70223BFE72C
:102070000023BDE71023BBE71023B9E7042B34D0BE
:102080000BD8002B2BD0022B05D1544B1B68DB0641
:102090002ED4534805E001206DE0082B1DD180208F
:1020A0000002626853009B18834200D978E0130352
:1020B000834200D276E0070E060250080021801904
:1020C00079410023FEF788F8464BC218464B9A42E6
:1020D0006AD82368D86000204DE001204BE0FFF76C
:1020E0003DFE0028DDD1002045E0FFF75FFAF8E76C
:1020F0003E48D6E7082B59D89B003D4AD3589F4607
:10210000FFF72CFE002853D0400061684B08C01830
:10211000FDF7D6FF0200103A364B9A424AD882B2F7
:102120000F239A434008083B034013432268D360BF
:10213000002020E0FFF722FEE4E7284B1B68DB06C7
:1021400004D42748E0E7FFF731FADBE72748DBE76D
:10215000FFF704FE002831D061684B081818FDF71E
:10216000AFFF0200103A234B9A4229D8236800049B
:10217000000CD86000200023A366E366D0BDFFF703
:10218000FDFDE7E7154B1B68DB0607D41448E3E7C2
:10219000FFF70CFADEE780200002DDE71348DBE7FB
:1021A0000120E8E70120E6E70120E4E70120E2E77B
:1021B0000020E0E70120DEE70120DCE70020DAE78D
:1021C0000120D8E7F369FFEFFFCFFFFF0048004091
:1021D000FFF4FFFF00440040982800080010024070
:1021E0000024F40000FDFFFFFFFC0F0000093D008C
:1021F000BC280008EFFF0000436ADB0706D5026831
:1022000053682C490B40816A0B435360436A9B0718
:1022100006D50268536828490B40C16A0B435360D6
:10222000436A5B0706D50268536824490B40016B7B
:102230000B435360436A1B0706D502685368204965
:102240000B40416B0B435360436ADB0606D50268C3
:1022500093681C490B40816B0B439360436A9B0658
:1022600006D50268936818490B40C16B0B43936015
:10227000436A5B060BD50268536814490B40016C36
:102280000B435360026C80235B039A420AD0436A7B
:102290001B0606D5026853680D490B40816C0B4341
:1022A00053607047026853680A490B40416C0B4306
:1022B0005360ECE7FFFFFDFFFFFFFEFFFFFFFBFFAB
:1022C000FF7FFFFFFFEFFFFFFFDFFFFFFFFFEFFFDE
:1022D000FFFFF7FFFFFF9FFFF8B5CE46474680B5EB
:1022E00006000D0017009946089B98463368DC6984
:1022F0002C40641B63425C41BC422FD143460133F6
:10230000F4D0FEF7D7F94B46C01A40452BD84346C8
:10231000002B2AD033681A685207E7D5DA6912070A
:1023200010D4DA691205E1D5802212011A62300058
:10233000FFF704FE84232022F2500C3B0022F254CB
:1023400003200CE008241C623000FFF7F7FD842313
:10235000F4500C3B0022F254012000E00020C0BCED
:10236000B946B046F8BD0320F9E70320F7E7F0B51A
:10237000C64600B582B004000D0090461E00C36F33
:10238000202B62D1002965D0002A65D08268802385
:102390005B019A4204D10369002B01D1CB075DD4C4
:1023A00084230022E250633BE367FEF783F90700D2
:1023B00050234246E2520233E252A26880235B017C
:1023C0009A4202D00023984617E02369002B29D0B7
:1023D0000023984611E02023E367032036E04346BC
:1023E0001B882268DB05DB0D936202239C46E044D8
:1023F0005223E25A013A92B2E2525223E35A9BB27A
:10240000002B12D000963B00002280212000FFF715
:1024100063FF0028DFD1002DE1D02A7823689A627B
:102420000135E5E7A8460025E7E700963B000022D6
:1024300040212000FFF750FF002802D12023E3674E
:1024400004E02023E367032000E0022002B080BC08
:10245000B846F0BD0120F9E70120F7E70120F5E7D4
:1024600030B583B0040084230022C250FEF722F965
:10247000050023681B681B070FD423681B685B07D4
:1024800029D42023E3678022A350002323666366B8
:10249000083AA354002003B030BD8021224B0093A2
:1024A0000300002289032000FFF716FF0028E4D074
:1024B000EFF31081012383F31088226813688020D2
:1024C0008343136081F310882023E367583300228D
:1024D000E2547D38DFE78021134B00932B0000226C
:1024E000C9032000FFF7F8FE0028CAD0EFF31080E0
:1024F000012282F3108821680B680C4D2B400B6081
:1025000080F31088EFF3108082F3108821688B68C5
:1025100093438B6080F3108880231F32E250083B86
:102520000022E2540320B6E7FFFFFF01DFFEFFFFBA
:1025300010B5041E2ED0C36F002B21D02423E367D7
:102540002268136801218B4313602000FFF726FDEA
:10255000012814D0636A002B18D1226853680E49F1
:102560000B405360226893682A218B439360226852
:10257000136829390B4313602000FFF771FF10BD6A
:1025800078330022C254FEF703F8D7E72000FFF7A4
:1025900033FEE2E70120F2E7FFB7FFFF0D48854673
:1025A000FEF73EF80C480D490D4A002302E0D458CE
:1025B000C4500433C4188C42F9D30A4A0A4C00238D
:1025C00001E013600432A242FBD300F019F8FDF7DA
:1025D00035FFFEE700200020000000200C00002056
:1025E000F02800080C00002008010020FEE703008E
:1025F0008218934200D1704719700133F9E7000047
:1026000070B500260C4C0D4D641BA410A64209D1D8
:10261000002600F013F90A4C0A4D641BA410A642D0
:1026200005D170BDB300EB5898470136EEE7B30013
:10263000EB5898470136F2E7E8280008E828000838
:10264000EC280008E8280008F0B5CE469946030CAF
:102650009C46130447461B0C1D000E0061460404F3
:10266000240C80B50700100C4B4365434143604385
:102670002C0CC01824188C46A34203D980235B027B
:102680009846C444494679435643230C2D042D0CE7
:102690008919634424046019C918C0BCB946B046FE
:1026A000F0BDC046F0B557464E464546DE46E0B55D
:1026B00004000D009246994683B08B4230D82DD04D
:1026C00049465046FDF7A8FD290006002000FDF709
:1026D000A3FD331A9846203B34D49B4653465A46B2
:1026E000934042461F00534693401E00AF423BD8E2
:1026F000AF4200D179E05B46A41BBD41002B00DA5C
:1027000076E0002200230092019301235A46934071
:102710000193012342469340009329E08242CFD99E
:1027200000220023009201930C9B002B01D01C601F
:102730005D600098019903B0F0BCBB46B246A94663
:10274000A046F0BD42469B4620239B1A5246DA40E3
:10275000414613004A468A40170042461F435346EB
:1027600093401E00AF42C3D9002200230092019380
:102770004346002BD8D0FB0772081A4346467B0815
:102780000EE0AB4201D1A2420CD8A41A9D41012017
:1027900024196D410021013E24184D41002E06D020
:1027A000AB42EED9013E24196D41002EF8D10098BC
:1027B00001995B4600196941002B24DB2B005A4626
:1027C0004446D3402A00E2401C005B461500002B23
:1027D0002ADB26009E40330026004746BE403200DA
:1027E000801A9941009001919EE7A342BCD882E7EC
:1027F0004246202300219B1A0022009101920122CF
:10280000DA40019285E7424620239B1A2A00464679
:102810009A402300F340444613432A00E2401C0040
:102820005B461500002BD4DA42462F0020232600F9
:1028300097409B1ADE403B003343CDE7F8B5C046D6
:10284000F8BC08BC9E467047F8B5C046F8BC08BC4A
:042850009E467047E9
:1028540073657474696E67206C65640A0D0000000A
:10286400756E73657474696E67206C65640A0D0017
:10287400030406080C1018203000000000000000BB
:102884000102030400000000000000000102030430
:1028940006070809502100087E2100088421000849
:1028A400B821000890210008B8210008B8210008C8
:1028B400B8210008962100080021000834210008EE
:1028C4003A210008AC21000846210008AC21000888
:0C28D400AC210008AC210008082100081D
:0828E000C4FDFF7F01000000B0
:0428E800950200084D
:0428EC006D02000871
:0C28F000000020000100000004000000B7
:040000050800259D2D
:00000001FF
