:020000040800F2
:1000000000200020790E0008D1030008D303000867
:1000100000000000000000000000000000000000E0
:10002000000000000000000000000000D5030008F0
:100030000000000000000000D7030008D9030008FA
:10004000C90E0008C90E0008C90E0008C90E000834
:10005000C90E0008C90E0008C90E0008C90E000824
:1000600000000000C90E0008C90E0008C90E0008F3
:10007000C90E0008C90E000800000000C90E0008E3
:100080000000000000000000000000000000000070
:10009000C90E000800000000C90E0008C90E0008C3
:1000A00000000000C90E0008000000000000000071
:1000B000C90E0008C90E0008000000000000000082
:1000C000002243088B4274D303098B425FD3030A97
:1000D0008B4244D3030B8B4228D3030C8B420DD3AA
:1000E000FF22090212BA030C8B4202D31212090238
:1000F00065D0030B8B4219D300E0090AC30B8B4276
:1001000001D3CB03C01A5241830B8B4201D38B0323
:10011000C01A5241430B8B4201D34B03C01A5241C8
:10012000030B8B4201D30B03C01A5241C30A8B420B
:1001300001D3CB02C01A5241830A8B4201D38B02F6
:10014000C01A5241430A8B4201D34B02C01A52419A
:10015000030A8B4201D30B02C01A5241CDD2C3090C
:100160008B4201D3CB01C01A524183098B4201D388
:100170008B01C01A524143098B4201D34B01C01A73
:10018000524103098B4201D30B01C01A5241C308EB
:100190008B4201D3CB00C01A524183088B4201D35A
:1001A0008B00C01A524143088B4201D34B00C01A46
:1001B0005241411A00D20146524110467047FFE7B2
:1001C00001B5002000F006F802BDC0460029F7D0B6
:1001D00076E770477047C046002B11D1002A0FD137
:1001E000002900D1002802D00021C943080007B42B
:1001F000024802A14018029003BDC046D9FFFFFF8C
:1002000003B4684601B5029800F0BAFE019B9E4611
:1002100002B00CBC7047C04610B5002903D100F0F5
:1002200007F8203002E0080000F002F810BDC046D8
:100230001C2101231B04984201D3000C10391B0A16
:10024000984201D3000A08391B09984201D30009DA
:10025000043902A2105C40187047C0460403020231
:1002600001010101000000000000000010B5064C73
:100270002378002B07D1054B002B02D0044800E067
:1002800000BF0123237010BD0C00002000000000FF
:1002900018110008044B10B5002B03D00349044883
:1002A00000E000BF10BDC0460000000010000020AC
:1002B0001811000810B586B01422002101A800F022
:1002C00004FE0D4AD16A02231943D162D26A134057
:1002D0000093009B094C00220121200000F0F4F95A
:1002E00001230193029300230393049301A92000A7
:1002F00000F02CF906B010BD0010024000040050C0
:1003000072B6FEE700B593B03422002105A800F0D4
:10031000DCFD14220021684600F0D7FD14490A686C
:10032000144B1A4080231B0113430B6010230593C9
:100330000F3B0B9300230C93A02212020D920E93FD
:1003400005A800F01FFA00280ED10F230093002308
:1003500001930293039304930021684600F0A0FCEC
:10036000002803D113B000BDFFF7CAFFFFF7C8FF95
:1003700000700040FFE7FFFF70B500F05BF8FFF78B
:10038000C1FFFFF797FF0A4D01220121280000F06D
:100390009BF9FA246400200000F072F80022012189
:1003A000280000F091F9200000F06AF8EBE7C04661
:1003B00000040050054B5A6B01210A435A63996BA4
:1003C000802252050A439A637047C04600100240DB
:1003D000FEE7FEE77047704710B500F03FF810BD2C
:1003E0007047000010B504000F4B1978FA20800008
:1003F000FFF766FE01000D4B1868FFF761FE00F085
:10040000A1F800280DD1032C01D901200AE0013008
:1004100000222100404200F091F8054B1C600020B2
:1004200000E0012010BDC0460400002000000020B4
:100430000800002010B5084A136840210B431360E0
:100440000320FFF7CFFF041E02D00124200010BDBF
:10045000FFF7B0FFFAE7C04600200240034A1168E8
:10046000034B1B785B1813607047C04628000020C0
:1004700004000020014B18687047C0462800002087
:1004800070B50400FFF7F6FF0500631C02D0044BB3
:100490001B78E418FFF7EEFF401BA042FAD370BDB3
:1004A0000400002070B5002811DB8308134DC03311
:1004B0009B005C5903221040C000FC3216008640AD
:1004C000B44389010A40824022435A5170BD0F2330
:1004D0000340083B9B0806339B00094A944663444B
:1004E0005C6803221040C000FC3215008540AC431C
:1004F00089010A40824022435A60E7E700E100E0B8
:1005000000ED00E0013880235B0498420FD2094AD5
:1005100050600948036A1B021B0AC02109060B43ED
:1005200003620023936007331360002070470120AB
:10053000FCE7C04610E000E000ED00E010B5FFF77A
:10054000B1FF10BD10B5FFF7DDFF10BDF0B5002302
:1005500056E086685F000324BC40A643CC68BC40DC
:1005600034438460446894434E6836090122324023
:100570009A402243426053E0DE080836B6003758FE
:1005800005321A4092000F249440A7430C6994400E
:1005900022003A43325056E0052600E00026A640ED
:1005A00034003C4302329200414E9451414A9768D4
:1005B000EA433E00AE434C68E40201D53E002E43C0
:1005C0003C4CA660E7683E0016404C68A40201D58A
:1005D0003E002E43374CE66067683E0016404C688C
:1005E000A40301D53E002E43324C6660266832409B
:1005F0004C68E40301D52A0032432E4C22600133BB
:100600000C682200DA4052D001229A4025001540A1
:100610001442F4D04E6803243440013C012C98D994
:100620004C6803222240032A08D0C4685E000322DB
:10063000B24094438A68B2402243C2604C680322AD
:100640002240022A98D004685E0003221700B740B7
:10065000BC434F683A40B240224302604C68C0221B
:1006600092021442CBD0144C626B01263243626377
:100670009A08941CA4000E4EA75903241C40A40001
:100680000F26A640B743A026F605B04286D00B4EF3
:10069000B04208D00A4EB04207D00A4EB04200D154
:1006A0007AE706267BE7012679E7022677E7F0BDA1
:1006B000000001400004014000100240000400500E
:1006C00000080050001C0050002A01D081617047D2
:1006D0008162FCE710B5264BDA680C231340082B27
:1006E00042D00C2B11D0042B09D0214B5A68520B4D
:1006F00007231340013380200002984010BD1C4B9B
:100700001B68DB0632D51B48F8E7910C0F230B4022
:100710001949C85C920D03231A40541C144BDB6822
:10072000DB0309D5154A0023002100F0FBFB220062
:100730000023FFF751FDE1E70D4B1B68DB0609D5F0
:100740000C4A0023002100F0EDFB22000023FFF7FC
:1007500043FDD3E70A4A0023002100F0E3FB220017
:100760000023FFF739FDC9E70448C7E70448C5E798
:100770000010024000093D003011000800127A000C
:100780000024F400F0B583B0041E00D165E2C54B2F
:10079000DA680C251540DE6880235B021E40036882
:1007A000DB0736D5082D2CD00C2D28D0636880228D
:1007B0005202934255D0A022D202934258D0B94B54
:1007C0001A68B9490A401A601A68802149020A4029
:1007D0000192019A1A68B5490A401A606368002BB1
:1007E00052D0FFF747FE0700AE4B1B689B0310D4A7
:1007F000FFF740FEC01B6428F6D903202EE2002E2E
:10080000D4D0A84B1B689B0303D56368002B00D191
:1008100026E223689B076DD5E3689A0605D5A148B3
:10082000026820210A4302608B43042D3CD00C2D2A
:1008300038D0002B00D1B0E09A490A6809208243E1
:1008400013430B60FFF716FE0600964B1B685B0711
:1008500000D599E0FFF70EFE801B0228F5D9032092
:10086000FCE1904A116880235B020B431360B5E7FB
:100870008C4B19688022D2020A431A6019688022C0
:1008800052020A431A60A9E7FFF7F4FD0700854BFF
:100890001B689B03BDD5FFF7EDFDC01B6428F6D98F
:1008A0000320DBE1002EC4D17E4A1268520702D534
:1008B000002B00D1D6E17B4E72687D490A40216948
:1008C00009020A437260326809218A431343336084
:1008D000FFF700FFF26812090F231340754AD35C3B
:1008E000D840754B1860754B1868FFF77BFD0028E2
:1008F00000D0B3E12368DB062DD5002D60D1694B14
:100900001B689B0503D5A369002B00D1ACE1654AA8
:1009100053686B490B40216A0B43536053681B02B9
:100920001B0AE16909060B435360216A490B013137
:1009300080231B028B40D16809090F220A405D49C0
:100940008A5CD3405C4A13605C4B1868FFF74AFD31
:10095000002800D082E123681B077DD56369002B46
:1009600067D0504A136D01210B431365FFF782FDD9
:1009700006004C4B1B6D9B076ED4FFF77BFD801B65
:100980000228F6D9032069E146494B68484A1340DA
:100990002269120213434B60ACE7424A13680121FB
:1009A0008B431360FFF766FD06003E4B1B685B0739
:1009B000A0D5FFF75FFD801B0228F6D903204DE18B
:1009C000A369002B22D0374A116880235B000B43B8
:1009D0001360FFF74FFD0600324B1B689B0506D4E2
:1009E000FFF748FD801B0228F6D9032036E12D4A87
:1009F000536833490B40216A0B43536053681B0211
:100A00001B0AE16909060B435360A4E7254A1368F2
:100A10002C490B401360FFF72DFD0600214B1B688E
:100A20009B0598D5FFF726FD801B0228F6D90320E9
:100A300014E11C4A136D01218B431365FFF71AFD66
:100A40000600184B1B6D9B0706D5FFF713FD801B97
:100A50000228F6D9032001E123685B0700D48EE069
:100A6000104B9B6BDB001BD40E4A916B80235B0504
:100A70000B4393630126144B1B68DB0528D5A36841
:100A800080225200934237D0002B4DD1054B1A6D76
:100A90000C490A401A651A6D0C490A401A6531E082
:100AA0000026E8E700100240FFFFFEFFFFFFFBFF0C
:100AB000FFE0FFFF3C1100080000002008000020BC
:100AC000FF1FFFFFFFFEFFFF00700040FFFBFFFF67
:100AD0006B4A116880235B000B431360FFF7CAFC6D
:100AE0000700674B1B68DB05C9D4FFF7C3FCC01BBD
:100AF0006428F6D90320B1E0624A116D80235B00BF
:100B00000B431365A368002B28D0FFF7B3FC070045
:100B10005C4B1B6D9B0530D4FFF7ACFCC01B5A4BE4
:100B20009842F5D9032099E0A022D200934209D03F
:100B3000544B1A6D55490A401A651A6D54490A40BA
:100B40001A65DFE74F4B196D013AFF3A0A431A6500
:100B5000196D802252000A431A65D3E7FFF78AFC19
:100B60000700484B1B6D9B0507D5FFF783FCC01B97
:100B7000454B9842F5D9032070E0012E1AD0636AE4
:100B8000002B00D172E00C2D4FD0022B18D03D4A23
:100B9000136840490B401360FFF76CFC0400394BAD
:100BA0001B689B013FD5FFF765FC001B0228F6D9A7
:100BB000032053E0334A936B37490B409363DEE7DE
:100BC000304A136833490B401360FFF753FC0500AC
:100BD0002C4B1B689B0106D5FFF74CFC401B0228E1
:100BE000F6D903203AE02749CB682C4A1340A26A81
:100BF000E06A0243206B02431343CB600A68802300
:100C00005B0413430B60FFF735FC04001D4B1B68AE
:100C10009B0106D4FFF72EFC001B0228F6D9032007
:100C20001CE000201AE0002018E0012B20D0154B1A
:100C3000DA6880235B021340A16A8B421AD1F02349
:100C40009B031340E16A8B4216D1C0231B041A4058
:100C5000236B9A4212D1002000E0012003B0F0BDC6
:100C60000120FBE70120F9E70120F7E70020F5E785
:100C70000120F3E70120F1E70120EFE70120EDE794
:100C8000007000400010024088130000FFFEFFFFCC
:100C9000FFFBFFFFFFFFFFFEFFFFFFEFFFFF02FF76
:100CA00070B505000C00002800D1D1E06A4B1A682D
:100CB000012313408B4219D32B689B0706D5674A43
:100CC000D368F0218B43A9680B43D3602B68DB0703
:100CD0007BD56B68022B20D0032B40D0012B44D056
:100CE0005E4A126892051DD4012099E05A4A1368A1
:100CF00001218B4323431360FFF7BCFB0600564BD7
:100D00001A6801231340A342D6D0FFF7B3FB801B20
:100D1000534A9042F3D9032082E0504A126892036A
:100D200000D497E04D49CA68032082431343CB6047
:100D3000FFF7A0FB06006B68022B1CD0032B28D00A
:100D4000012B34D0454BDB680C221A423DD0FFF713
:100D500091FB801B424B9842F4D9032060E03F4A4C
:100D600012689201DED401205AE03C4A1268520710
:100D7000D8D4012054E0394BDA680C231340082BF7
:100D800023D0FFF777FB801B354A9042F3D903202D
:100D900046E0324BDA680C2313400C2B15D0FFF7DA
:100DA00069FB801B2E4B9842F3D9032038E02B4B74
:100DB000DA680C231340042B07D0FFF75BFB801B82
:100DC000274B9842F3D903202AE0234B1A680123CA
:100DD0001340A34225D82B685B0706D51F4AD3686A
:100DE00020490B40E9680B43D3602B681B0707D5EC
:100DF0001A49CB681C4A13402A69D2001343CB60BE
:100E0000FFF768FC154BDA6812090F231340174AE5
:100E1000D35CD840164B1860164B1868FFF7E2FAFF
:100E200070BD0D4A136801218B4323431360FFF704
:100E300021FB0600084B1A6801231340A342CAD0C5
:100E4000FFF718FB801B064B9842F3D90320E7E716
:100E50000120E5E70120E3E7002002400010024006
:100E600088130000FFF8FFFFFFC7FFFF3C110008D9
:100E700000000020080000200D488546FFF7B0FA6A
:100E80000C480D490D4A002302E0D458C4500433E5
:100E9000C4188C42F9D30A4A0A4C002301E01360BB
:100EA0000432A242FBD300F019F8FFF765FAFEE71F
:100EB00000200020000000200C0000205C11000831
:100EC0000C0000202C000020FEE703008218934253
:100ED00000D1704719700133F9E7000070B50026A2
:100EE0000C4C0D4D641BA410A64209D1002600F045
:100EF00013F90A4C0A4D641BA410A64205D170BD1B
:100F0000B300EB5898470136EEE7B300EB5898472B
:100F10000136F2E754110008541100085811000876
:100F200054110008F0B5CE469946030C9C461304B4
:100F300047461B0C1D000E0061460404240C80B5BE
:100F40000700100C4B436543414360432C0CC01811
:100F500024188C46A34203D980235B029846C444DC
:100F6000494679435643230C2D042D0C89196344BB
:100F700024046019C918C0BCB946B046F0BDC046CB
:100F8000F0B557464E464546DE46E0B504000D0036
:100F90009246994683B08B4230D82DD04946504670
:100FA000FFF73AF9290006002000FFF735F9331A58
:100FB0009846203B34D49B4653465A46934042467B
:100FC0001F00534693401E00AF423BD8AF4200D1B2
:100FD00079E05B46A41BBD41002B00DA76E00022DD
:100FE00000230092019301235A4693400193012369
:100FF00042469340009329E08242CFD90022002349
:10100000009201930C9B002B01D01C605D60009846
:10101000019903B0F0BCBB46B246A946A046F0BD5C
:1010200042469B4620239B1A5246DA404146130013
:101030004A468A40170042461F43534693401E00CB
:10104000AF42C3D900220023009201934346002BF4
:10105000D8D0FB0772081A4346467B080EE0AB4225
:1010600001D1A2420CD8A41A9D41012024196D413E
:101070000021013E24184D41002E06D0AB42EED98E
:10108000013E24196D41002EF8D1009801995B466C
:1010900000196941002B24DB2B005A464446D340FB
:1010A0002A00E2401C005B461500002B2ADB2600CC
:1010B0009E40330026004746BE403200801A9941C8
:1010C000009001919EE7A342BCD882E742462023CC
:1010D00000219B1A0022009101920122DA40019224
:1010E00085E7424620239B1A2A0046469A40230061
:1010F000F340444613432A00E2401C005B461500BF
:10110000002BD4DA42462F002023260097409B1A5A
:10111000DE403B003343CDE7F8B5C046F8BC08BC21
:101120009E467047F8B5C046F8BC08BC9E4670475E
:10113000030406080C101820300000000000000016
:0C1140000000000001020304060708097B
:08114C0034FEFF7F01000000EA
:0411540095020008F8
:041158006D0200081C
:0C115C0000002000010000000400000062
:0400000508000E7968
:00000001FF
