:020000040800F2
:1000000000200020B1170008BD040008BF0400084C
:1000100000000000000000000000000000000000E0
:10002000000000000000000000000000C104000803
:100030000000000000000000C3040008C504000820
:10004000011800080118000801180008011800082C
:10005000011800080118000801180008011800081C
:10006000000000000118000801180008011800082D
:10007000011800080118000800000000011800081D
:100080000000000000000000000000000000000070
:1000900001180008000000000118000801180008FD
:1000A000000000000118000800000000000000002F
:1000B00001180008011800080000000000000000FE
:1000C000002243088B4274D303098B425FD3030A97
:1000D0008B4244D3030B8B4228D3030C8B420DD3AA
:1000E000FF22090212BA030C8B4202D31212090238
:1000F00065D0030B8B4219D300E0090AC30B8B4276
:1001000001D3CB03C01A5241830B8B4201D38B0323
:10011000C01A5241430B8B4201D34B03C01A5241C8
:10012000030B8B4201D30B03C01A5241C30A8B420B
:1001300001D3CB02C01A5241830A8B4201D38B02F6
:10014000C01A5241430A8B4201D34B02C01A52419A
:10015000030A8B4201D30B02C01A5241CDD2C3090C
:100160008B4201D3CB01C01A524183098B4201D388
:100170008B01C01A524143098B4201D34B01C01A73
:10018000524103098B4201D30B01C01A5241C308EB
:100190008B4201D3CB00C01A524183088B4201D35A
:1001A0008B00C01A524143088B4201D34B00C01A46
:1001B0005241411A00D20146524110467047FFE7B2
:1001C00001B5002000F006F802BDC0460029F7D0B6
:1001D00076E770477047C046002B11D1002A0FD137
:1001E000002900D1002802D00021C943080007B42B
:1001F000024802A14018029003BDC046D9FFFFFF8C
:1002000003B4684601B5029801F056FB019B9E4677
:1002100002B00CBC7047C04610B5002903D100F0F5
:1002200007F8203002E0080000F002F810BDC046D8
:100230001C2101231B04984201D3000C10391B0A16
:10024000984201D3000A08391B09984201D30009DA
:10025000043902A2105C40187047C0460403020231
:1002600001010101000000000000000010B5064C73
:100270002378002B07D1054B002B02D0044800E067
:1002800000BF0123237010BD0C00002000000000FF
:10029000501A0008044B10B5002B03D00349044842
:1002A00000E000BF10BDC0460000000010000020AC
:1002B000501A000830B589B01422002103A801F0BB
:1002C000A0FA114BDA6A01242243DA62DA6A224088
:1002D0000192019AD96A02221143D962DB6A1A405B
:1002E0000292029B094D00220121280000F062FACF
:1002F0000394049400230593069303A9280000F0B7
:100300009BF909B030BDC046001002400004005007
:1003100072B6FEE710B50B480B4B03609623DB016A
:10032000436000238360C36003610C2242618361E8
:100330000362436201F006FA002800D110BDFFF706
:10034000E7FFC046280000200048004000B599B0F3
:10035000342200210BA801F054FA1422002106A82F
:1003600001F04FFA18220021684601F04AFA1A49B2
:100370000A681A4B1A4080231B0113430B60102399
:100380000B930F3B119300231293A022120213929E
:1003900014930BA800F06CFA002817D10F230693D2
:1003A00000230793089309930A93002106A800F0FD
:1003B000EDFC00280CD1042300930023039368462E
:1003C00000F0F6FD002805D119B000BDFFF7A0FF31
:1003D000FFF79EFFFFF79CFF00700040FFE7FFFF65
:1003E00070B500F09DF8FFF7B1FFFFF763FFFFF76F
:1003F00091FF1049104C64230D22200001F0C1F838
:100400000E4E01220121300000F0D4F9FA256D00D2
:10041000280000F0ABF80A4964230F22200001F005
:10042000B0F800220121300000F0C4F9280000F0EB
:100430009DF8DEE7681A000828000020000400503C
:10044000781A0008054B5A6B01210A435A63996BCD
:10045000802252050A439A637047C046001002404A
:1004600010B586B004001422002101A801F0C9F9DA
:100470002268104B9A4201D006B010BD0E4B996B0A
:100480008022D2020A439A63D96A01221143D962B7
:10049000DB6A1A400092009B0C2301930A3B0293F3
:1004A0000133049303330593A02001A9C00500F094
:1004B000C3F8E1E70048004000100240FEE7FEE715
:1004C0007047704710B500F03FF810BD704700004E
:1004D00010B504000F4B1978FA208000FFF7F0FDEB
:1004E00001000D4B1868FFF7EBFD00F0A1F80028A4
:1004F0000DD1032C01D901200AE001300022210096
:10050000404200F091F8054B1C60002000E0012003
:1005100010BDC0460400002000000020080000209C
:1005200010B5084A136840210B4313600320FFF7FE
:10053000CFFF041E02D00124200010BDFFF782FF70
:10054000FAE7C04600200240034A1168034B1B78BB
:100550005B1813607047C046B00000200400002004
:10056000014B18687047C046B000002070B5040009
:10057000FFF7F6FF0500631C02D0044B1B78E4185C
:10058000FFF7EEFF401BA042FAD370BD040000202D
:1005900070B5002811DB8308134DC0339B005C59F4
:1005A00003221040C000FC3216008640B44389018B
:1005B0000A40824022435A5170BD0F230340083B3A
:1005C0009B0806339B00094A944663445C680322F7
:1005D0001040C000FC3215008540AC4389010A4040
:1005E000824022435A60E7E700E100E000ED00E0CE
:1005F000013880235B0498420FD2094A50600948B1
:10060000036A1B021B0AC02109060B430362002375
:10061000936007331360002070470120FCE7C04659
:1006200010E000E000ED00E010B5FFF7B1FF10BDF5
:1006300010B5FFF7DDFF10BDF0B5002356E086686A
:100640005F000324BC40A643CC68BC4034438460B4
:10065000446894434E683609012232409A4022434E
:10066000426053E0DE080836B600375805321A40BB
:1006700092000F249440A7430C69944022003A430F
:10068000325056E0052600E00026A64034003C43E8
:1006900002329200414E9451414A9768EA433E002B
:1006A000AE434C68E40201D53E002E433C4CA660AC
:1006B000E7683E0016404C68A40201D53E002E4378
:1006C000374CE66067683E0016404C68A40301D5CD
:1006D0003E002E43324C6660266832404C68E4038C
:1006E00001D52A0032432E4C226001330C682200CF
:1006F000DA4052D001229A40250015401442F4D02D
:100700004E6803243440013C012C98D94C680322E4
:100710002240032A08D0C4685E000322B2409443FA
:100720008A68B2402243C2604C6803222240022AF7
:1007300098D004685E0003221700B740BC434F689E
:100740003A40B240224302604C68C02292021442F6
:10075000CBD0144C626B0126324362639A08941C1E
:10076000A4000E4EA75903241C40A4000F26A64047
:10077000B743A026F605B04286D00B4EB04208D053
:100780000A4EB04207D00A4EB04200D17AE70626A0
:100790007BE7012679E7022677E7F0BD00000140FC
:1007A0000004014000100240000400500008005006
:1007B000001C0050002A01D0816170478162FCE773
:1007C00010B5264BDA680C231340082B42D00C2BB3
:1007D00011D0042B09D0214B5A68520B0723134028
:1007E000013380200002984010BD1C4B1B68DB06C3
:1007F00032D51B48F8E7910C0F230B401949C85C10
:10080000920D03231A40541C144BDB68DB0309D5FB
:10081000154A0023002101F021F822000023FFF7F0
:10082000DBFCE1E70D4B1B68DB0609D50C4A002316
:10083000002101F013F822000023FFF7CDFCD3E7DD
:100840000A4A0023002101F009F822000023FFF7E3
:10085000C3FCC9E70448C7E70448C5E700100240E5
:1008600000093D00881A000800127A000024F400F4
:10087000F0B583B0041E00D165E2C54BDA680C25E3
:100880001540DE6880235B021E400368DB0736D517
:10089000082D2CD00C2D28D0636880225202934260
:1008A00055D0A022D202934258D0B94B1A68B94908
:1008B0000A401A601A68802149020A400192019A8E
:1008C0001A68B5490A401A606368002B52D0FFF7D6
:1008D00047FE0700AE4B1B689B0310D4FFF740FE9A
:1008E000C01B6428F6D903202EE2002ED4D0A84BDA
:1008F0001B689B0303D56368002B00D126E22368A5
:100900009B076DD5E3689A0605D5A14802682021AA
:100910000A4302608B43042D3CD00C2D38D0002BB1
:1009200000D1B0E09A490A680920824313430B6062
:10093000FFF716FE0600964B1B685B0700D599E093
:10094000FFF70EFE801B0228F5D90320FCE1904A38
:10095000116880235B020B431360B5E78C4B196869
:100960008022D2020A431A601968802252020A4386
:100970001A60A9E7FFF7F4FD0700854B1B689B038E
:10098000BDD5FFF7EDFDC01B6428F6D90320DBE1E0
:10099000002EC4D17E4A1268520702D5002B00D126
:1009A000D6E17B4E72687D490A40216909020A43FB
:1009B0007260326809218A4313433360FFF700FFF6
:1009C000F26812090F231340754AD35CD840754B67
:1009D0001860754B1868FFF77BFD002800D0B3E165
:1009E0002368DB062DD5002D60D1694B1B689B0564
:1009F00003D5A369002B00D1ACE1654A53686B496C
:100A00000B40216A0B43536053681B021B0AE169C8
:100A100009060B435360216A490B013180231B02F5
:100A20008B40D16809090F220A405D498A5CD34096
:100A30005C4A13605C4B1868FFF74AFD002800D041
:100A400082E123681B077DD56369002B67D0504A7C
:100A5000136D01210B431365FFF782FD06004C4B1C
:100A60001B6D9B076ED4FFF77BFD801B0228F6D918
:100A7000032069E146494B68484A13402269120243
:100A800013434B60ACE7424A136801218B43136068
:100A9000FFF766FD06003E4B1B685B07A0D5FFF71E
:100AA0005FFD801B0228F6D903204DE1A369002BCE
:100AB00022D0374A116880235B000B431360FFF795
:100AC0004FFD0600324B1B689B0506D4FFF748FD1F
:100AD000801B0228F6D9032036E12D4A536833499A
:100AE0000B40216A0B43536053681B021B0AE169E8
:100AF00009060B435360A4E7254A13682C490B40B1
:100B00001360FFF72DFD0600214B1B689B0598D550
:100B1000FFF726FD801B0228F6D9032014E11C4AAA
:100B2000136D01218B431365FFF71AFD0600184B67
:100B30001B6D9B0706D5FFF713FD801B0228F6D916
:100B4000032001E123685B0700D48EE0104B9B6B10
:100B5000DB001BD40E4A916B80235B050B43936330
:100B60000126144B1B68DB0528D5A36880225200A0
:100B7000934237D0002B4DD1054B1A6D0C490A40DA
:100B80001A651A6D0C490A401A6531E00026E8E73B
:100B900000100240FFFFFEFFFFFFFBFFFFE0FFFF33
:100BA0009C1A00080000002008000020FF1FFFFF23
:100BB000FFFEFFFF00700040FFFBFFFF6B4A116864
:100BC00080235B000B431360FFF7CAFC0700674BF1
:100BD0001B68DB05C9D4FFF7C3FCC01B6428F6D92A
:100BE0000320B1E0624A116D80235B000B43136563
:100BF000A368002B28D0FFF7B3FC07005C4B1B6DEC
:100C00009B0530D4FFF7ACFCC01B5A4B9842F5D97A
:100C1000032099E0A022D200934209D0544B1A6DD0
:100C200055490A401A651A6D54490A401A65DFE7AA
:100C30004F4B196D013AFF3A0A431A65196D80222C
:100C400052000A431A65D3E7FFF78AFC0700484BB6
:100C50001B6D9B0507D5FFF783FCC01B454B9842D6
:100C6000F5D9032070E0012E1AD0636A002B00D161
:100C700072E00C2D4FD0022B18D03D4A136840492A
:100C80000B401360FFF76CFC0400394B1B689B01A1
:100C90003FD5FFF765FC001B0228F6D9032053E07F
:100CA000334A936B37490B409363DEE7304A13684E
:100CB00033490B401360FFF753FC05002C4B1B68B6
:100CC0009B0106D5FFF74CFC401B0228F6D90320F8
:100CD0003AE02749CB682C4A1340A26AE06A0243F3
:100CE000206B02431343CB600A6880235B041343E9
:100CF0000B60FFF735FC04001D4B1B689B0106D4FD
:100D0000FFF72EFC001B0228F6D903201CE0002070
:100D10001AE0002018E0012B20D0154BDA68802360
:100D20005B021340A16A8B421AD1F0239B0313404C
:100D3000E16A8B4216D1C0231B041A40236B9A42EE
:100D400012D1002000E0012003B0F0BD0120FBE73C
:100D50000120F9E70120F7E70020F5E70120F3E79C
:100D60000120F1E70120EFE70120EDE700700040EE
:100D70000010024088130000FFFEFFFFFFFBFFFF93
:100D8000FFFFFFFEFFFFFFEFFFFF02FF70B5050053
:100D90000C00002800D1D1E06A4B1A6801231340EF
:100DA0008B4219D32B689B0706D5674AD368F0217D
:100DB0008B43A9680B43D3602B68DB077BD56B683B
:100DC000022B20D0032B40D0012B44D05E4A126866
:100DD00092051DD4012099E05A4A136801218B43E2
:100DE00023431360FFF7BCFB0600564B1A68012330
:100DF0001340A342D6D0FFF7B3FB801B534A904267
:100E0000F3D9032082E0504A1268920300D497E09D
:100E10004D49CA68032082431343CB60FFF7A0FB10
:100E200006006B68022B1CD0032B28D0012B34D07A
:100E3000454BDB680C221A423DD0FFF791FB801B2B
:100E4000424B9842F4D9032060E03F4A1268920175
:100E5000DED401205AE03C4A12685207D8D401205F
:100E600054E0394BDA680C231340082B23D0FFF7EA
:100E700077FB801B354A9042F3D9032046E0324B82
:100E8000DA680C2313400C2B15D0FFF769FB801B8D
:100E90002E4B9842F3D9032038E02B4BDA680C2311
:100EA0001340042B07D0FFF75BFB801B274B9842B6
:100EB000F3D903202AE0234B1A6801231340A342ED
:100EC00025D82B685B0706D51F4AD36820490B40FD
:100ED000E9680B43D3602B681B0707D51A49CB6819
:100EE0001C4A13402A69D2001343CB60FFF768FC09
:100EF000154BDA6812090F231340174AD35CD84008
:100F0000164B1860164B1868FFF7E2FA70BD0D4AD1
:100F1000136801218B4323431360FFF721FB060075
:100F2000084B1A6801231340A342CAD0FFF718FBED
:100F3000801B064B9842F3D90320E7E70120E5E741
:100F40000120E3E700200240001002408813000067
:100F5000FFF8FFFFFFC7FFFF9C1A000800000020FA
:100F600008000020014B18687047C04600000020B0
:100F700010B5FFF7F7FF044BDA68120A0723134096
:100F8000024AD35CD84010BD00100240941A0008F9
:100F900010B5FFF7E7FF044BDA68D20A07231340C6
:100FA000024AD35CD84010BD00100240941A0008D9
:100FB00070B5040003689B064ED55B4B9B6BDB0052
:100FC00074D4594A916B80235B050B4393630126CC
:100FD000564B1B68DB056BD5534B1B68626853404F
:100FE000C02189030B4205D0C0239B021100194088
:100FF000994271D04C4B196DC0239B0208001840D8
:10100000194215D01A40824212D023689B060FD590
:10101000454B1A6D464911401D6D80200003284341
:101020001865186D434D284018651965D20559D4C7
:1010300023689B060ED56368C022920219001140F6
:1010400091425ED038490B6D6268C0208002024038
:1010500013430B65012E5ED023689B0706D5324AE9
:10106000D36C0C218B43A1680B43D36423685B07CB
:1010700006D52D4AD36C30490B40E1680B43D3644D
:1010800023681B0706D5284AD36C2C490B402169DD
:101090000B43D36423681B0643D5234AD36C2849EA
:1010A0000B4061690B43D36400203BE000268FE7CF
:1010B0001E4A116880235B000B431360FFF750FA50
:1010C00005001A4B1B68DB0586D4FFF749FA401B65
:1010D0006428F6D9032025E0134B1B689B0389D5B0
:1010E00001201FE0FFF73CFA05000F4B1B6D9B052D
:1010F0009ED4FFF735FA401B124B9842F5D90320D6
:1011000010E009490A6810480240C02080030340EB
:1011100013430B6096E7044A936B0C490B409363AF
:101120009AE7002070BDC0460010024000700040E9
:10113000FFFFFCFFFFFFF7FFFFF3FFFFFFCFFFFF06
:10114000FFFFF3FF88130000FFFFCFFFFFFFFFEF5C
:1011500010B5EFF3108C012282F3108801680B6840
:10116000124C23400B608CF31088EFF3108C82F349
:10117000108801688B6893438B608CF31088036E32
:10118000012B06D080232022C250002303668366F1
:1011900010BDEFF3108183F31088026813683234B6
:1011A000FF34A343136081F31088EBE7DFFEFFFFFA
:1011B000D0B5040001688368026913434269134390
:1011C000C26913430A688448024013430B602268D3
:1011D000536882490B40E1680B435360A169226860
:1011E0007F4B9A4201D0236A194393687D4803409C
:1011F0000B43936022687C4B9A4212D0784B9A4200
:1012000020D0102376498A4242D0E069802212021F
:10121000904279D0082B00D9D8E09B00734AD3586C
:101220009F46734BD96C0C230B40082B22D005D85A
:10123000002B21D0042BE5D01023E3E70C2B1DD18C
:10124000043BDFE76A4BDB6CC02109010B408021C6
:1012500009018B4214D007D8002B13D08021C9007C
:101260008B4211D10423CDE7C02109018B420DD15E
:101270000823C7E70223C5E70023C3E71023C1E71C
:101280000223BFE70023BDE71023BBE71023B9E724
:10129000042B34D00BD8002B2BD0022B05D1544B70
:1012A0001B68DB062ED4534805E001206DE0082BB7
:1012B0001DD180200002626853009B18834200D930
:1012C00078E01303834200D276E0070E060250084E
:1012D0000021801979410023FEF77EFF464BC2189A
:1012E000464B9A426AD82368D86000204DE001201E
:1012F0004BE0FFF73DFE0028DDD1002045E0FFF781
:101300005FFAF8E73E48D6E7082B59D89B003D4ADC
:10131000D3589F46FFF72CFE002853D04000616849
:101320004B08C018FEF7CCFE0200103A364B9A422A
:101330004AD882B20F239A434008083B0340134324
:101340002268D360002020E0FFF722FEE4E7284B6C
:101350001B68DB0604D42748E0E7FFF731FADBE738
:101360002748DBE7FFF704FE002831D061684B080F
:101370001818FEF7A5FE0200103A234B9A4229D80E
:1013800023680004000CD86000200023A366E366F5
:10139000D0BDFFF7FDFDE7E7154B1B68DB0607D463
:1013A0001448E3E7FFF70CFADEE780200002DDE7F0
:1013B0001348DBE70120E8E70120E6E70120E4E746
:1013C0000120E2E70020E0E70120DEE70120DCE782
:1013D0000020DAE70120D8E7F369FFEFFFCFFFFF36
:1013E00000480040FFF4FFFF00440040AC1A000832
:1013F000001002400024F40000FDFFFFFFFC0F007E
:1014000000093D00D01A0008EFFF0000436ADB0727
:1014100006D5026853682C490B40816A0B43536020
:10142000436A9B0706D50268536828490B40C16A86
:101430000B435360436A5B0706D50268536824492F
:101440000B40016B0B435360436A1B0706D50268D0
:10145000536820490B40416B0B435360436ADB06E2
:1014600006D5026893681C490B40816B0B4393605F
:10147000436A9B0606D50268936818490B40C16B06
:101480000B439360436A5B060BD5026853681449AB
:101490000B40016C0B435360026C80235B039A4248
:1014A0000AD0436A1B0606D5026853680D490B40F3
:1014B000816C0B4353607047026853680A490B40C4
:1014C000416C0B435360ECE7FFFFFDFFFFFFFEFFA6
:1014D000FFFFFBFFFF7FFFFFFFEFFFFFFFDFFFFFD0
:1014E000FFFFEFFFFFFFF7FFFFFF9FFFF8B5CE46BF
:1014F000474680B506000D0017009946089B9846A0
:101500003368DC692C40641B63425C41BC422FD1D0
:1015100043460133F4D0FFF723F84B46C01A404549
:101520002BD84346002B2AD033681A685207E7D5D8
:10153000DA69120710D4DA691205E1D580221201A6
:101540001A623000FFF704FE84232022F2500C3B85
:101550000022F25403200CE008241C623000FFF744
:10156000F7FD8423F4500C3B0022F254012000E0EC
:101570000020C0BCB946B046F8BD0320F9E70320FF
:10158000F7E7F0B5C64600B582B004000D009046FE
:101590001E00C36F202B62D1002965D0002A65D0C0
:1015A000826880235B019A4204D10369002B01D138
:1015B000CB075DD484230022E250633BE367FEF750
:1015C000CFFF070050234246E2520233E252A268A4
:1015D00080235B019A4202D00023984617E02369DA
:1015E000002B29D00023984611E02023E367032035
:1015F00036E043461B882268DB05DB0D936202233D
:101600009C46E0445223E25A013A92B2E2525223FB
:10161000E35A9BB2002B12D000963B00002280219F
:101620002000FFF763FF0028DFD1002DE1D02A78EA
:1016300023689A620135E5E7A8460025E7E70096AA
:101640003B00002240212000FFF750FF002802D17C
:101650002023E36704E02023E367032000E0022067
:1016600002B080BCB846F0BD0120F9E70120F7E7E1
:101670000120F5E730B583B0040084230022C25076
:10168000FEF76EFF050023681B681B070FD4236855
:101690001B685B0729D42023E3678022A350002323
:1016A00023666366083AA354002003B030BD80214E
:1016B000224B00930300002289032000FFF716FF4E
:1016C0000028E4D0EFF31081012383F3108822680F
:1016D000136880208343136081F310882023E3671D
:1016E00058330022E2547D38DFE78021134B00930A
:1016F0002B000022C9032000FFF7F8FE0028CAD003
:10170000EFF31080012282F3108821680B680C4DE2
:101710002B400B6080F31088EFF3108082F3108869
:1017200021688B6893438B6080F3108880231F327D
:10173000E250083B0022E2540320B6E7FFFFFF011E
:10174000DFFEFFFF10B5041E2ED0C36F002B21D08B
:101750002423E3672268136801218B431360200070
:10176000FFF726FD012814D0636A002B18D12268E8
:1017700053680E490B405360226893682A218B43BB
:1017800093602268136829390B4313602000FFF728
:1017900071FF10BD78330022C254FEF761FED7E717
:1017A0002000FFF733FEE2E70120F2E7FFB7FFFF7B
:1017B0000D488546FEF78AFE0C480D490D4A002368
:1017C00002E0D458C4500433C4188C42F9D30A4AF6
:1017D0000A4C002301E013600432A242FBD300F064
:1017E00019F8FEF7FDFDFEE70020002000000020B4
:1017F0000C000020041B00080C000020B400002096
:10180000FEE703008218934200D17047197001333C
:10181000F9E7000070B500260C4C0D4D641BA410B8
:10182000A64209D1002600F013F90A4C0A4D641BA8
:10183000A410A64205D170BDB300EB5898470136FD
:10184000EEE7B300EB5898470136F2E7FC1A0008C0
:10185000FC1A0008001B0008FC1A0008F0B5CE4670
:101860009946030C9C46130447461B0C1D000E00B2
:1018700061460404240C80B50700100C4B436543FB
:10188000414360432C0CC01824188C46A34203D952
:1018900080235B029846C444494679435643230C4F
:1018A0002D042D0C8919634424046019C918C0BC87
:1018B000B946B046F0BDC046F0B557464E4645461F
:1018C000DE46E0B504000D009246994683B08B4297
:1018D00030D82DD049465046FEF79EFC2900060020
:1018E0002000FEF799FC331A9846203B34D49B46DF
:1018F00053465A46934042461F00534693401E00AB
:10190000AF423BD8AF4200D179E05B46A41BBD415A
:10191000002B00DA76E000220023009201930123DD
:101920005A4693400193012342469340009329E095
:101930008242CFD900220023009201930C9B002BFE
:1019400001D01C605D600098019903B0F0BCBB46FB
:10195000B246A946A046F0BD42469B4620239B1AAC
:101960005246DA40414613004A468A401700424632
:101970001F43534693401E00AF42C3D900220023A9
:10198000009201934346002BD8D0FB0772081A43FC
:1019900046467B080EE0AB4201D1A2420CD8A41A05
:1019A0009D41012024196D410021013E24184D4123
:1019B000002E06D0AB42EED9013E24196D41002E17
:1019C000F8D1009801995B4600196941002B24DB8E
:1019D0002B005A464446D3402A00E2401C005B4696
:1019E0001500002B2ADB26009E40330026004746C8
:1019F000BE403200801A9941009001919EE7A342B7
:101A0000BCD882E74246202300219B1A0022009185
:101A100001920122DA40019285E7424620239B1A77
:101A20002A0046469A402300F340444613432A00C6
:101A3000E2401C005B461500002BD4DA42462F0022
:101A40002023260097409B1ADE403B003343CDE71E
:101A5000F8B5C046F8BC08BC9E467047F8B5C0460D
:081A6000F8BC08BC9E4670476B
:101A680073657474696E67206C65640A0000000011
:101A7800756E73657474696E67206C65640A00001E
:101A8800030406080C1018203000000000000000B5
:101A9800010203040000000000000000010203042A
:101AA8000607080964130008921300089813000831
:101AB800CC130008A4130008CC130008CC130008AA
:101AC800CC130008AA1300081413000848130008D0
:101AD8004E130008C01300085A130008C01300086A
:0C1AE800C0130008C01300081C13000805
:081AF400C4FDFF7F01000000AA
:041AFC009502000847
:041B00006D0200086A
:0C1B0400000020000100000004000000B0
:04000005080017B127
:00000001FF
