:020000040800F2
:1000000000180020190E000811040008130400084D
:1000100000000000000000000000000000000000E0
:1000200000000000000000000000000015040008AF
:100030000000000000000000170400081904000878
:10004000690E000800000000690E0008690E000833
:10005000690E0008690E0008690E0008690E0008A4
:1000600000000000690E0008690E0008690E000813
:10007000690E0008690E0008690E00080000000003
:10008000690E00080000000000000000690E000872
:1000900000000000690E0008690E0008690E0008E3
:1000A00000000000690E000800000000690E000852
:1000B000690E0008000000000000000000000000C1
:1000C000002243088B4274D303098B425FD3030A97
:1000D0008B4244D3030B8B4228D3030C8B420DD3AA
:1000E000FF22090212BA030C8B4202D31212090238
:1000F00065D0030B8B4219D300E0090AC30B8B4276
:1001000001D3CB03C01A5241830B8B4201D38B0323
:10011000C01A5241430B8B4201D34B03C01A5241C8
:10012000030B8B4201D30B03C01A5241C30A8B420B
:1001300001D3CB02C01A5241830A8B4201D38B02F6
:10014000C01A5241430A8B4201D34B02C01A52419A
:10015000030A8B4201D30B02C01A5241CDD2C3090C
:100160008B4201D3CB01C01A524183098B4201D388
:100170008B01C01A524143098B4201D34B01C01A73
:10018000524103098B4201D30B01C01A5241C308EB
:100190008B4201D3CB00C01A524183088B4201D35A
:1001A0008B00C01A524143088B4201D34B00C01A46
:1001B0005241411A00D20146524110467047FFE7B2
:1001C00001B5002000F006F802BDC0460029F7D0B6
:1001D00076E770477047C04610B5064C2378002B71
:1001E00007D1054B002B02D0044800E000BF0123DB
:1001F000237010BD0C00002000000000C40E000899
:10020000044B10B5002B03D00349044800E000BFA5
:1002100010BDC0460000000010000020C40E000801
:1002200082B0094B596B012211435963596B0A4043
:100230000092009A596B0222114359635B6B1A407A
:100240000192019B02B070470010024072B6FEE7B7
:1002500010B51048104B036082235B0043600023FD
:100260008360E022D200C260036143618022D20237
:100270008261C3610362436283620722C2620363D5
:100280000833436300F046FD002800D110BDFFF79E
:10029000DDFFC046280000200030014000B58DB0D1
:1002A0001C22002105A800F0E0FD14220021684670
:1002B00000F0DBFD02230593FE33089380235B01EE
:1002C000099340230A9305A800F034FA00280ED1C0
:1002D00007230093002301930293039304930021C7
:1002E000684600F0B5FB002803D10DB000BDFFF754
:1002F000ADFFFFF7ABFF10B500F0C6F8FFF7CEFF7C
:10030000FFF78EFFFFF7A4FFFEE7000082B00A4B65
:10031000196C012211431964196C0A400092009A69
:10032000DA6B802149050A43DA63DB6B0B400193EA
:10033000019B02B07047C0460010024070B590B0FB
:100340000400142200210BA800F08FFD1C220021C4
:1003500004A800F08AFD2268284B9A4201D010B010
:1003600070BD80231B01049304A800F039FC002811
:1003700041D1234B1A6C802149010A431A641A6C3B
:100380000A400192019A596B012211435963596B3A
:100390000A400292029A5A6B02252A435A635B6B07
:1003A0002B400393039B174B0B930C9500240D9448
:1003B0000E940F94A026F6050BA9300000F0E2F889
:1003C00080235B000B930C950D940E94F83B0F93D8
:1003D0000BA9300000F0D6F840230B930C950D9438
:1003E0000E94373B0F930BA9074800F0CBF8074852
:1003F00000F068F8B3E7FFF729FFBAE700300140E3
:100400000010024002100000000400504800FC00F0
:10041000FEE7FEE77047704710B500F041F810BDE9
:10042000024B802212059A607047C04600ED00E042
:1004300010B50400114B1978002901D1012010BD1D
:10044000FA208000FFF73CFE01000D4B1868FFF713
:1004500037FE00F093F800280DD1032C01D90120BC
:10046000EDE7013000222100404200F083F8054B07
:100470001C600020E3E70120E1E7C0460400002003
:10048000000000200800002010B50320FFF7D0FF77
:10049000041E02D00124200010BDFFF737FFFAE749
:1004A000034B1B78034A11685B1813607047C04602
:1004B000040000208C000020014B18687047C046E3
:1004C0008C000020044AD36B010C8B430004000C09
:1004D0000343D3637047C0460000014070B5002855
:1004E00011DB8308134DC0339B005C59032210407D
:1004F000C000FC3216008640B44389010A408240A5
:1005000022435A5170BD0F230340083B9B0806331A
:100510009B00094A944663445C6803221040C00073
:10052000FC3215008540AC4389010A4082402243D9
:100530005A60E7E700E100E000ED00E001388023C9
:100540005B0498420FD2094A50600948036A1B02B3
:100550001B0AC02109060B43036200239360073383
:100560001360002070470120FCE7C04610E000E067
:1005700000ED00E010B5FFF7B1FF10BD10B5FFF7BB
:10058000DDFF10BDF0B5D6464F464646C0B5002348
:100590003BE0052500E00025A5402C003C43614DD3
:1005A0001832920054518022AF584A46D2433D003F
:1005B0004C46A5434C68E40302D53D004C46254318
:1005C000584C8027E551842567593D0015404C68FB
:1005D000A40302D53D004C462543524C8427E551E7
:1005E00027683D0015404C68E40202D53D004C46AA
:1005F00025434C4C256065682A404C68A40201D50F
:100600004A462A43474C626001330C682200DA40B4
:1006100000D181E001229A4026001640B1461442E2
:10062000F2D04C68022C01D0122C18D1DD0808350C
:10063000AD002C58A44607271F40BF000F24A24638
:100640002600BE40B04666464446A643B4460C6902
:10065000564626403400BC40664634432C5004685D
:10066000A4465D000324A2462700AF40B846FF43DE
:1006700066464446A643B4464C6856462640340077
:10068000AC406646344304604C68661E012E03D9B4
:10069000112C01D0122C12D184683C40A446CC68A5
:1006A000AC40664634438460446894434A68120907
:1006B00094460122664632409A40224342604A688C
:1006C000032A05D0C4683C408A68AA402243C2601D
:1006D0004A68D20098D59A0814001834A400114D25
:1006E000675903241C40E4000F25A540AF43A02513
:1006F000ED05A84200D14EE70B4DA84208D00B4DA6
:10070000A84207D00A4DA84200D142E7062543E798
:10071000012541E702253FE7E0BCBA46B146A846BD
:10072000F0BDC04600180240000400500008005010
:100730000014005070B5041E00D139E10368DB07D6
:100740002CD5A14B9A6838231340082B22D043683C
:100750008022520293422ED0A022D202934231D064
:10076000994B1A6899490A401A601A6898490A40D0
:100770001A606368002B31D0FFF79EFE0500924B94
:100780001B689B030AD4FFF797FE401B6428F6D929
:1007900003200EE14368002B00D10BE123689B0787
:1007A00047D5894B9B6838221A4261D1E368002BF8
:1007B00022D10120FDE0844A116880235B020B43B3
:1007C0001360D6E7804B19688022D2020A431A6070
:1007D0001968802252020A431A60CAE7FFF76CFECA
:1007E0000500794B1B689B03D8D5FFF765FE401BBE
:1007F0006428F6D90320DCE0734B5A6875490A4037
:10080000616909020A435A601A6873490A402169FA
:100810000A431A601B68DB0A07221A406F4BD34059
:100820006F4A13606F4B1868FFF702FE002800D074
:10083000C2E023681B0757D5634B9A6838231340DF
:10084000182B4ED0A369002B77D05F4A136E01217D
:100850000B431366FFF730FE05005B4B1B6E9B07D7
:1008600042D4FFF729FE401B0228F6D90320A0E05E
:10087000E368002B22D0544A136857490B40216982
:100880000B431360116880235B000B431360FFF779
:1008900013FE05004C4B1B685B0506D4FFF70CFEEE
:1008A000401B0228F6D9032083E047494B68494A98
:1008B00013406269120213434B60BAE7424A13685D
:1008C00049490B401360FFF7F7FD05003E4B1B68DD
:1008D0005B05AED5FFF7F0FD401B0228F6D90320DB
:1008E00067E0A369002B69D023685B0768D5364BA6
:1008F0009A6838231340202B32D0A368012B34D0C0
:10090000052B38D0304BDA6D01218A43DA65DA6D78
:1009100003318A43DA65A368002B38D0FFF7CCFD9A
:100920000400294BDB6D9B072FD4FFF7C5FD001B8F
:100930002E4B9842F5D903203BE0234A136E012148
:100940008B431366FFF7B8FD05001F4B1B6E9B071B
:10095000CAD5FFF7B1FD401B0228F6D9032028E0D5
:10096000A368002B2ED0002023E0174AD36D01216D
:100970000B43D365CFE7144BDA6D04210A43DA65E4
:10098000DA6D03390A43DA65C5E7002011E0FFF7A5
:1009900093FD04000C4BDB6D9B0707D5FFF78CFD27
:1009A000001B124B9842F5D9032002E0002000E022
:1009B000012070BD0120FCE70120FAE70120F8E7E3
:1009C0000020F6E70120F4E700100240FFFFFEFFE1
:1009D000FFFFFBFFFF80FFFFFFC7FFFF006CDC0294
:1009E0000000002008000020FFFEFFFF8813000029
:1009F000144B9B6838221A4207D1124B1A68D20A4C
:100A0000072313401048D84070470E4B9A6838238C
:100A10001340082B10D00B4B9A6838231340202B1F
:100A20000CD0084B9A6838231340182B01D00020B3
:100A3000EAE7FA20C001E7E70448E5E78020000282
:100A4000E2E7C04600100240006CDC0200127A00AF
:100A500070B504000D00002800D1AAE0574B1A68B9
:100A6000072313408B4228D323689A0710D55B07CE
:100A700007D553498A68534B1A40B0231B011343CF
:100A80008B604F4A936850490B40E1680B43936079
:100A90002368DB0752D54A4A13681C218B43A1689F
:100AA0000B4313606368012B1ED0002B38D1444ADE
:100AB000126852051BD4012063E0404A13680721E5
:100AC0008B432B431360FFF7F7FC06003B4B1A6880
:100AD00007231340AB42C7D0FFF7EEFC801B3B4A15
:100AE0009042F3D903204CE01268920363D5344955
:100AF0008A680720824313438B60FFF7DDFC060002
:100B00002F4B9B6838221A406368DB009A4215D04D
:100B1000FFF7D2FC801B2D4B9842F1D9032030E027
:100B2000032B05D0264AD26D9207E0D4012028E09D
:100B3000234A126E9207DAD4012022E01F4B1A6872
:100B400007231340AB421DD823685B0706D51C4A18
:100B500093681F490B4021690B439360FFF748FFDF
:100B6000174B9A68120A0F2313401A4A9B009A588F
:100B70001F231340D840184B1860184B1868FFF714
:100B800057FC70BD0D4A136807218B432B4313603C
:100B9000FFF792FC0600094B1A6807231340AB428B
:100BA000D2D0FFF789FC801B084B9842F3D9032071
:100BB000E7E70120E5E70120E3E7C0460020024027
:100BC00000100240FF84FFFFFFF0FFFF88130000CA
:100BD000FF8FFFFFDC0E000800000020080000204F
:100BE00070B582B0040003689B034ED5424BDB6BAB
:100BF000DB0035D4404BDA6B802149050A43DA63C8
:100C0000DB6B0B400193019B01253B4BD96DC0224F
:100C100092000B001340114210D0A2699A420DD0ED
:100C2000354AD36D35490B40D06D802149020143CF
:100C3000D165D16D32480140D165D365DB0711D450
:100C40002D4AD36D2D490B40A1690B43D36500207C
:100C5000012D1BD1284AD36B2A490B40D36315E0E1
:100C60000025D2E7FFF728FC0600234BDB6D9B072E
:100C700007D4FFF721FC801B234B9842F5D90320B2
:100C800000E000200028E3D1DAE700202368DB073A
:100C900006D5194A536D03218B43A1680B43536555
:100CA00023685B0606D5144A536D18490B40E1686A
:100CB0000B43536523685B0406D50F4A536D9B00B5
:100CC0009B0861690B43536523681B0506D50A4AD7
:100CD000536D0F490B4021690B4353652368002B6B
:100CE00001DB02B070BD044A1368E0218B436168E8
:100CF0000B431360F5E7C04600100240FFFCFFFF06
:100D0000FFFFFEFFFFFFFFEF88130000FFCFFFFF95
:100D1000FF3FFFFF70B5041E00D178E0436A002B4F
:100D200007D142680533FF339A4205D00023C361DF
:100D300002E00023036143610023A3625D33E35CAF
:100D4000002B5AD05D230222E2542268136840210E
:100D50008B431360E368E022D200934254D900220F
:100D6000F02109018B4205D0E021C9008B4201D05E
:100D70000023A3626368822149000B40A16884209C
:100D8000000201400B432069022101400B436069CE
:100D9000012108400343A0698025AD00284003439A
:100DA000E569382028400343256A80202840034312
:100DB000A06A8025AD012840256803432B60608B25
:100DC00004230340656A102028400343656B082014
:100DD00028400343E068F0252D01284003432068A4
:100DE000134343602268D3690A480340D361002358
:100DF00023665D33E154002070BD5C330022E25471
:100E00002000FFF79BFA9DE780225201A8E701200E
:100E1000F2E7C046FFF7FFFF0D488546FFF700FBEE
:100E2000002103E00B4B5B58435004310A480B4B45
:100E300042189A42F6D30A4A02E0002313600432B1
:100E4000084B9A42F9D300F019F8FFF754FAFEE77D
:100E500000180020240F0008000000200C000020D3
:100E60000C00002090000020FEE70300821893424F
:100E700000D1704719700133F9E7000070B5002602
:100E80000C4C0D4D641BA410A64209D1002600F0A5
:100E900019F80A4C0A4D641BA410A64205D170BD76
:100EA000B300EB5898470136EEE7B300EB5898478C
:100EB0000136F2E71C0F00081C0F0008200F000885
:100EC0001C0F0008F8B5C046F8BC08BC9E46704729
:0C0ED000F8B5C046F8BC08BC9E46704750
:100EDC000000000000000000000000000000000006
:100EEC0000000000000000000000000000000000F6
:100EFC0001000000020000000300000004000000DC
:100F0C0006000000070000000800000009000000B7
:040F1C0001020008C6
:040F2000D9010008EB
:0C0F2400006CDC02010000000400000072
:0400000508000E19C8
:00000001FF
